:100000000C945E000C9486000C9486000C94860080
:100010000C9486000C9486000C9486000C94860048
:100020000C9486000C9486000C9486000C94650455
:100030000C9486000C9486000C9486000C94860028
:100040000C94C3030C9486000C9433040C940D049C
:100050000C9486000C9486000C9486000C94860008
:100060000C9486000C9486000000000024002700F9
:100070002A0000000000250028002B0004040404CE
:100080000404040402020202020203030303030342
:10009000010204081020408001020408102001021F
:1000A00004081020000000080002010000030407FB
:1000B00000000000000000004205270711241FBEB9
:1000C000CFEFD8E0DEBFCDBF11E0A0E0B1E0ECE3C0
:1000D000F4E102C005900D92AA31B107D9F722E0F0
:1000E000AAE1B1E001C01D92A430B207E1F710E02F
:1000F000CDE5D0E004C02197FE010E940F08CC3569
:10010000D107C9F70E9493050C94110A0C940000C2
:100110002091EC013091ED018217930738F4209182
:10012000E8013091E9012115310529F410924A01C5
:100130008AE491E00895820F931F0895CF92DF9291
:10014000EF92FF920F931F93CF93DF936C017A018D
:100150008B01C0E0D0E0CE15DF0581F0D8016D91B4
:100160008D01D601ED91FC910190F081E02DC60149
:100170000995892B11F02196EECF7E01C701DF9101
:10018000CF911F910F91FF90EF90DF90CF90089546
:10019000089580E090E00895FC01538D448D252F53
:1001A00030E0842F90E0821B930B541710F0CF9611
:1001B000089501970895FC01918D828D981761F043
:1001C000828DDF01A80FB11D5D968C91928D9F5F8E
:1001D0009F73928F90E008958FEF9FEF0895FC0139
:1001E000918D828D981731F0828DE80FF11D858DEC
:1001F00090E008958FEF9FEF0895FC01918D228D7F
:10020000892F90E0805C9F4F821B91098F73992703
:1002100008958BE491E00E94FD0021E0892B09F410
:1002200020E0822F0895FC01848DDF01A80FB11D0D
:10023000A35ABF4F2C91848D90E001968F7399271C
:10024000848FA689B7892C93A089B1898C918370FA
:1002500080648C93938D848D981306C00288F389F3
:10026000E02D80818F7D80830895EF92FF920F9320
:100270001F93CF93DF93EC0181E0888F9B8D8C8D52
:10028000981305C0E889F989808185FD26C0F62E7E
:100290000B8D10E00F5F1F4F0F731127E02E8C8D19
:1002A000E8120CC00FB607FCFACFE889F989808103
:1002B00085FFF5CFCE010E941301F1CF8B8DFE019A
:1002C000E80FF11DE35AFF4FF0829FB7F8940B8FB0
:1002D000EA89FB89808180620AC09FB7F894EE8921
:1002E000FF896083E889F9898081837080648083D5
:1002F0009FBF81E090E0DF91CF911F910F91FF9020
:10030000EF900895CF93DF93EC01888D8823C9F097
:10031000EA89FB89808185FD05C0A889B9898C910E
:1003200086FD0FC00FB607FCF5CF808185FFF2CFA9
:10033000A889B9898C9185FFEDCFCE010E94130168
:10034000E7CFDF91CF91089580E090E0892B29F0ED
:100350000E94090181110C940000089590E0FC01B5
:10036000EC55FF4F2491FC01E057FF4F3491FC0105
:10037000E458FF4FE491EE2309F43CC0222339F105
:10038000233091F038F42130A9F0223001F584B502
:100390008F7D12C0273091F02830A1F02430B9F4BD
:1003A000809180008F7D03C0809180008F77809343
:1003B00080000DC084B58F7784BD09C08091B000E6
:1003C0008F7703C08091B0008F7D8093B000F0E004
:1003D000EE0FFF1FEE58FF4FA591B4919FB7F89411
:1003E000611104C08C913095382302C0EC913E2BF2
:1003F0003C939FBF0895CF92DF92EF92FF92CF93ED
:10040000DF93EC01603282E078070CF03DC077FDAD
:1004100006C0653B71052CF064EB70E002C060E043
:1004200070E0898128E830E06901C81AD10887FDA9
:10043000D394CC0CDD1CCC0CDD1C0D2C000CEE0878
:10044000FF088A8128E532E0281B310987FD3395B2
:10045000220F331F220F331FC901330FAA0BBB0B0F
:100460009C01AD012C193D094E095F09DB010E9479
:10047000930724EB30E040E050E00E946907C20E91
:10048000D31EE41EF51EB60138813C3080F529816B
:1004900088E890E0821B910927FD9395880F991FAA
:1004A000880F991F6817790784F08A8148E552E020
:1004B000481B510987FD5395440F551F440F551F85
:1004C000CB01461757070CF4CA010297880F991FF2
:1004D0004FB7F894232F30E0F901EE0FFF1F2E0FD6
:1004E0003F1FF901E45EFE4F928381834FBFDF918E
:1004F000CF91FF90EF90DF90CF900895CF93DF934F
:10050000DC018C918C3008F06DC0CB019927FC0187
:10051000E057FF4F2491FC01E458FF4F849188235A
:1005200099F090E0880F991FFC01E859FF4FC591A1
:10053000D491FC01EE58FF4F859194918FB7F894B8
:10054000E881E22BE8838FBF8C91E82FF0E09F01D8
:10055000220F331FE20FF31FE45EFE4F6F73908193
:10056000907C692B608311961C92119712961C92B5
:1005700012976CE00E9403089CE0899FB00111244F
:1005800040E050E09B01240F351FF901EE0FFF1FE3
:100590002E0F3F1FF901E45EFE4F908196FD16C0BD
:1005A0004F5F5F4F4C30510569F781110FC01092BA
:1005B000800082E080938100109285001092840078
:1005C000B19A80916F00826080936F00EC91F0E0AF
:1005D000CF01880F991FE80FF91FE45EFE4F80815D
:1005E000806480838C91DF91CF9108950E94FC09F3
:1005F0000F931F93CF93DF93EC018881998100972C
:1006000029F02A813B812617370788F48B016F5F19
:100610007F4F0E943609009761F0998388831B837E
:100620000A832C813D81232B11F4FC01108281E08F
:1006300001C080E0DF91CF911F910F9108950F933A
:100640001F93CF93DF93EC018B010E94F802288166
:10065000398181110DC02115310519F0C9010E94A0
:10066000AD08198218821D821C821B821A8207C063
:100670001D830C8368E171E0C9010E940A0ACE0162
:10068000DF91CF911F910F910895EF92FF920F93F9
:100690001F93CF93DF9300D0CDB7DEB78C01698372
:1006A0001A82FC01E480F580FFEFEF1AFF0AB70120
:1006B0000E94F802882381F0F80120813181848131
:1006C0009581BE016F5F7F4F820F931F0E940A0AC0
:1006D000F801F582E48281E00F900F90DF91CF91D5
:1006E0001F910F91FF90EF900895CF92DF92EF92BC
:1006F000FF920F931F93CF93DF9300D000D000D0D1
:10070000CDB7DEB71A8219821C821B821E821D821F
:1007100060E070E0CE0101960E941F0381E090E04E
:100720000E948800FC016081CE0101960E94450371
:1007300082E090E00E948800FC016081CE01019679
:100740000E94450309811A810115110531F0C80184
:100750000E942D076B017C0103C0C12CD12C7601B6
:10076000C8010E94AD08C60126960FB6F894DEBFF8
:100770000FBECDBFDF91CF911F910F91FF90EF90F2
:10078000DF90CF9008951F920F920FB60F92112411
:100790002F933F938F939F93AF93BF938091460185
:1007A00090914701A0914801B091490130914501D4
:1007B00023E0230F2D3720F40196A11DB11D05C0A4
:1007C00026E8230F0296A11DB11D209345018093B9
:1007D000460190934701A0934801B093490180914D
:1007E000410190914201A0914301B09144010196D1
:1007F000A11DB11D8093410190934201A09343013B
:10080000B0934401BF91AF919F918F913F912F91F0
:100810000F900FBE0F901F9018951F920F920FB65A
:100820000F9211242F933F934F935F936F937F9376
:100830008F939F93AF93BF93EF93FF938BE491E0DC
:100840000E941301FF91EF91BF91AF919F918F9102
:100850007F916F915F914F913F912F910F900FBEBC
:100860000F901F9018951F920F920FB60F921124A0
:100870002F938F939F93EF93FF93E0915B01F09100
:100880005C018081E0916101F091620182FD12C002
:100890009081809164018F5F8F7320916501821731
:1008A00051F0E0916401F0E0E55BFE4F958F80939D
:1008B000640101C08081FF91EF919F918F912F91F1
:1008C0000F900FBE0F901F9018951F920F920FB6AA
:1008D0000F9211242F933F934F935F936F937F93C6
:1008E0008F939F93AF93BF93EF93FF9380911A01E0
:1008F00087FF05C010928500109284001BC02091D4
:100900001A01022E000C330B80911B0190E0281776
:10091000390784F480911A01082E000C990BFC0110
:10092000EE0FFF1F8E0F9F1FFC01E45EFE4F8081C4
:1009300086FD15C080911A018F5F80931A01209166
:100940001A01022E000C330B80911B0190E0281736
:100950003907C4F480911A018C3064F113C080917E
:100960001A01082E000C990BFC01EE0FFF1F8E0FD1
:100970009F1FFC01E45EFE4F808160E08F730E9448
:10098000AE01D8CF80918400909185000496803488
:100990009C4918F480E49CE905C080918400909102
:1009A0008500049690938900809388008FEF809350
:1009B0001A013BC0209184003091850080911A017A
:1009C000082E000C990BFC01EE0FFF1F8E0F9F1FCE
:1009D000FC01E45EFE4F81819281820F931F909310
:1009E00089008093880080911A01082E000C990BD1
:1009F000FC01EE0FFF1F8E0F9F1FFC01E45EFE4FF8
:100A0000808186FF12C080911A01082E000C990B7C
:100A1000FC01EE0FFF1F8E0F9F1FFC01E45EFE4FD7
:100A2000808161E08F730E94AE01FF91EF91BF91D1
:100A3000AF919F918F917F916F915F914F913F9176
:100A40002F910F900FBE0F901F901895FC01909161
:100A50001B019C30A0F481E0890F80931B019083DF
:100A6000892F90E0FC01EE0FFF1F8E0F9F1FFC01EE
:100A7000E45EFE4F88EB9BE09283818308958FEFC5
:100A800080830895EBE4F1E01382128288EE93E014
:100A9000A0E0B0E084839583A683B7838AE091E0E9
:100AA0009183808385EC90E09587848784EC90E047
:100AB0009787868780EC90E0918B808B81EC90E02B
:100AC000938B828B82EC90E0958B848B86EC90E00C
:100AD000978B868B118E128E138E148E8DEF91E074
:100AE0000E9426058AEF91E00E94260587EF91E09B
:100AF0000E94260584EF91E00E94260581EF91E097
:100B00000E9426058EEE91E00E942605E8EEF1E0B7
:100B100011821082138212821582148260E070E0CA
:100B2000CF010C941F03789484B5826084BD84B592
:100B3000816084BD85B5826085BD85B5816085BDD8
:100B400080916E00816080936E0010928100809190
:100B50008100826080938100809181008160809318
:100B60008100809180008160809380008091B1003D
:100B700084608093B1008091B00081608093B00068
:100B800080917A00846080937A0080917A008260FC
:100B900080937A0080917A00816080937A008091BE
:100BA0007A00806880937A001092C100E0915B0126
:100BB000F0915C0182E08083E0915701F09158014F
:100BC0001082E0915901F0915A018FEC80831092CC
:100BD0006301E0915F01F091600186E08083E09124
:100BE0005D01F0915E01808180618083E0915D0113
:100BF000F0915E01808188608083E0915D01F091D9
:100C00005E01808180688083E0915D01F0915E01EA
:100C100080818F7D808360E08DE00E94AE0169E07D
:100C200070E08DEF91E00E947E0260E070E08DEF59
:100C300091E00E94FB0168E070E08AEF91E00E9481
:100C40007E0260E070E08AEF91E00E94FB0167E0C5
:100C500070E087EF91E00E947E0260E070E087EF35
:100C600091E00E94FB0166E070E084EF91E00E9459
:100C70007E0260E070E084EF91E00E94FB0165E09D
:100C800070E081EF91E00E947E0260E070E081EF11
:100C900091E00E94FB0164E070E08EEE91E00E9422
:100CA0007E0260E070E08EEE91E00E94FB01C1E008
:100CB0008BE491E00E94FD00181619064CF48BE4B9
:100CC00091E00E94DB00682F88EE91E00E944503CE
:100CD00080E090E00E948800FC018081813689F1EB
:100CE00080E090E00E948800FC018081823649F11A
:100CF00080E090E00E948800FC018081833609F149
:100D000080E090E00E948800FC0180818436C9F078
:100D100080E090E00E948800FC018081853689F0A7
:100D200080E090E00E948800FC018081863649F0D6
:100D300080E090E00E948800FC0180818A3209F006
:100D40007FC08091EC019091ED01039708F475C08C
:100D500080E090E00E948800FC018081833609F4E5
:100D600053C0DCF5813609F443C00CF047C08A3229
:100D700009F05DC00E947503BC018DEF91E00E94F7
:100D8000FB010E947503BC018AEF91E00E94FB0108
:100D90000E947503BC0187EF91E00E94FB010E9455
:100DA0007503BC0184EF91E00E94FB010E94750372
:100DB000BC0181EF91E00E94FB010E947503BC0120
:100DC0008EEE91E00E94FB01609140016C276093E0
:100DD00040018DE00E94AE012AC0853609F1D4F0B1
:100DE000863629F50E947503BC018EEE91E01DC088
:100DF0000E947503BC018DEF91E017C00E9475033E
:100E0000BC018AEF91E011C00E947503BC0187EF1D
:100E100091E00BC00E947503BC0184EF91E005C016
:100E20000E947503BC0181EF91E00E94FB0160E02C
:100E300070E088EE91E00E941F030E94A40138CF69
:100E400060E070E088EE91E00E941F037ACF80910D
:100E5000E8019091E9010C94AD081F93FC019927DA
:100E60008827BC01E89411911032E9F3193010F091
:100E70001E30C8F31B3251F01D3249F4689406C08D
:100E80000E945407610F711D811D911D1191105316
:100E90001A30B0F33EF490958095709561957F4F30
:100EA0008F4F9F4F1F910895592F482F372F262F6F
:100EB000660F771F881F991F660F771F881F991F5E
:100EC000620F731F841F951F660F771F881F991F5E
:100ED0000895052E97FB1EF400940E94800757FD8D
:100EE00007D00E94D20707FC03D04EF40C94800771
:100EF00050954095309521953F4F4F4F5F4F089546
:100F000090958095709561957F4F8F4F9F4F089575
:100F10000E94F407A59F900DB49F900DA49F800D93
:100F2000911D11240895B7FF0C9488070E9488072B
:100F3000821B930B08952F923F924F925F926F9274
:100F40007F928F929F92AF92BF92CF92DF92EF9259
:100F5000FF920F931F93CF93DF93CDB7DEB7CA1BDA
:100F6000DB0B0FB6F894DEBF0FBECDBF09942A8805
:100F7000398848885F846E847D848C849B84AA84AD
:100F8000B984C884DF80EE80FD800C811B81AA813A
:100F9000B981CE0FD11D0FB6F894DEBF0FBECDBF05
:100FA000ED010895A1E21A2EAA1BBB1BFD010DC085
:100FB000AA1FBB1FEE1FFF1FA217B307E407F50709
:100FC00020F0A21BB30BE40BF50B661F771F881FE5
:100FD000991F1A9469F760957095809590959B017B
:100FE000AC01BD01CF010895A29FB001B39FC00124
:100FF000A39F700D811D1124911DB29F700D811D45
:101000001124911D0895991B79E004C0991F96172A
:1010100008F0961B881F7A95C9F780950895EE0F02
:10102000FF1F0590F491E02D09940F931F93CF9328
:10103000DF938230910510F482E090E0E0910202AB
:10104000F091030220E030E0A0E0B0E0309719F129
:10105000408151810281138148175907C8F08417D4
:10106000950769F4109731F012960C931297139626
:101070001C9327C0009302021093030222C0211583
:10108000310519F04217530718F49A01BD01EF0119
:10109000DF01F801DBCF21153105F9F0281B390BF1
:1010A0002430310580F48A819B816115710521F01E
:1010B000FB019383828304C0909303028093020216
:1010C000FE01329644C0FE01E20FF31F819391931B
:1010D00022503109398328833AC02091000230918F
:1010E0000102232B41F4209102013091030130933E
:1010F000010220930002209100013091010121158D
:10110000310541F42DB73EB74091040150910501DE
:10111000241B350BE0910002F0910102E217F30766
:10112000A0F42E1B3F0B2817390778F0AC014E5F57
:101130005F4F2417350748F04E0F5F1F5093010291
:10114000409300028193919302C0E0E0F0E0CF0170
:10115000DF91CF911F910F910895CF93DF93009767
:1011600009F481C0FC01329713821282A09102021D
:10117000B0910302109781F420813181820F931F77
:1011800020910002309101022817390751F5F093A0
:101190000102E093000267C0ED0120E030E0CE17CD
:1011A000DF0740F44A815B819E0141155105F1F052
:1011B000EA01F5CFD383C28340815181840F951F0B
:1011C000C817D90759F488819981840F951F029611
:1011D000918380838A819B8193838283211531054A
:1011E00029F4F0930302E09302023DC0E901FB837E
:1011F000EA8349915991C40FD51FEC17FD0761F49B
:1012000080819181840F951F0296E90199838883DB
:10121000828193819B838A83E0E0F0E012968D9136
:101220009C911397009719F0FD01DC01F7CF8D9188
:101230009C9111979D012E5F3F4F820F931F20912C
:101240000002309101022817390769F4309729F418
:10125000109203021092020202C013821282B09313
:101260000102A0930002DF91CF910895A0E0B0E0C9
:10127000ECE3F9E00C949F07EC01009721F4CB011B
:101280000E941508B4C0FC01E60FF71F9C01225014
:101290003109E217F30708F4A8C0D9010D911C9198
:1012A000119706171707B0F00530110508F49BC019
:1012B000C80104978617970708F495C002501109D2
:1012C000061B170B019311936D937C93CF010E9422
:1012D000AD0889C05B01A01AB10A4C01800E911EB5
:1012E000A0910202B0910302612C712CE12CF12C2F
:1012F000109709F446C08D919C911197A815B905D6
:10130000B1F56C0142E0C40ED11CCA14DB0478F1C3
:101310004C018A189B08640142E0C40ED11C12964D
:10132000BC9012971396AC91B5E0CB16D10440F067
:10133000B282A38391828082D9016D937C9309C08C
:101340000E5F1F4F800F911FF90191838083EB2D5A
:10135000FA2FE114F10431F0D7011396FC93EE93C8
:10136000129741C0F0930302E09302023CC068165A
:10137000790608F43C017D0112960D90BC91A02DD8
:10138000B7CF809100029091010288169906E1F48E
:1013900066167706C8F480910001909101010097CC
:1013A00041F48DB79EB74091040150910501841B13
:1013B000950BE817F907C8F4F0930102E0930002D7
:1013C000F901718360830FC0CB010E9415087C0175
:1013D000009759F0A801BE010E94010ACE010E94A7
:1013E000AD08C70104C0CE0102C080E090E0CDB7D7
:1013F000DEB7EEE00C94BB0781E090E0F8940C942B
:10140000110AFB01DC0102C001900D9241505040D5
:10141000D8F70895FB01DC0101900D920020E1F75F
:10142000089510E0CDE5D0E004C0FE010E940F0851
:0C1430002196CE35D107C9F7F894FFCF04
:10143C000000040280000000000035019E00CC007A
:0A144C008201FD00DB00EF0000004C
:107800000C94343C0C94513C0C94513C0C94513CE1
:107810000C94513C0C94513C0C94513C0C94513CB4
:107820000C94513C0C94513C0C94513C0C94513CA4
:107830000C94513C0C94513C0C94513C0C94513C94
:107840000C94513C0C94513C0C94513C0C94513C84
:107850000C94513C0C94513C0C94513C0C94513C74
:107860000C94513C0C94513C11241FBECFEFD8E036
:10787000DEBFCDBF11E0A0E0B1E0ECE9FFE702C060
:1078800005900D92A230B107D9F712E0A2E0B1E065
:1078900001C01D92AD30B107E1F70E942D3D0C945F
:1078A000CC3F0C94003C982F959595959595959582
:1078B000905D8F708A307CF0282F295A8091C0000B
:1078C00085FFFCCF9093C6008091C00085FFFCCF60
:1078D0002093C6000895282F205DF0CF982F809127
:1078E000C00085FFFCCF9093C6000895EF92FF92F1
:1078F0000F931F93EE24FF2487018091C00087FD22
:1079000017C00894E11CF11C011D111D81E4E8164B
:1079100082E4F8068FE0080780E0180770F3E09132
:107920000401F091050109958091C00087FFE9CF1E
:107930008091C6001F910F91FF90EF9008950E94D3
:10794000763C982F8091C00085FFFCCF9093C600B5
:1079500091362CF490330CF09053892F089597555D
:10796000892F08951F930E949F3C182F0E949F3CCF
:107970001295107F810F1F9108951F93182F882350
:1079800021F00E94763C1150E1F71F9108951F935A
:10799000182F0E94763C803249F0809103018F5F5E
:1079A000809303018530C1F01F9108958091C0003C
:1079B00085FFFCCF84E18093C6008091C00085FFE5
:1079C000FCCF1093C6008091C00085FFFCCF80E102
:1079D0008093C6001F910895E0910401F091050184
:1079E00009951F9108950E94763C803241F0809164
:1079F00003018F5F80930301853081F008958091AA
:107A0000C00085FFFCCF84E18093C6008091C00058
:107A100085FFFCCF80E18093C6000895E0910401CA
:107A2000F09105010995089540E951E08823A1F0FE
:107A30002D9A28EE33E0FA013197F1F721503040CA
:107A4000D1F72D9828EE33E0FA013197F1F7215064
:107A50003040D1F7815061F708953F924F925F9285
:107A60006F927F928F929F92AF92BF92CF92DF924E
:107A7000EF92FF920F931F93CF93DF93000080E16B
:107A80008093C4001092C50088E18093C10086E015
:107A90008093C2005098589A259A81E00E94143D24
:107AA00024E1F22E9EE1E92E85E9D82E0FE0C02ECA
:107AB00010E1B12EAA24A394B1E49B2EA6E58A2E50
:107AC000F2E57F2EE0E26E2E79E4572E63E5462E36
:107AD00050E5352E0E94763C8033B1F18133B9F107
:107AE000803409F46FC0813409F476C0823409F41B
:107AF00085C0853409F488C0803531F1823521F1A3
:107B0000813511F1853509F485C0863509F48DC0BC
:107B1000843609F496C0843709F403C1853709F423
:107B200072C1863709F466C0809103018F5F80932C
:107B30000301853079F6E0910401F0910501099582
:107B40000E94763C803351F60E94F33CC3CF0E94E2
:107B5000763C803249F78091C00085FFFCCFF092DF
:107B6000C6008091C00085FFFCCF9092C600809136
:107B7000C00085FFFCCF8092C6008091C00085FFC9
:107B8000FCCF7092C6008091C00085FFFCCF609250
:107B9000C6008091C00085FFFCCF5092C600809146
:107BA000C00085FFFCCF4092C6008091C00085FFD9
:107BB000FCCF3092C6008091C00085FFFCCFB09210
:107BC000C60088CF0E94763C863808F4BDCF0E945C
:107BD000763C0E94F33C7ECF0E94763C803809F4CC
:107BE0009CC0813809F40BC1823809F43CC1883942
:107BF00009F48FC080E00E94C73C6CCF84E10E94F2
:107C0000BD3C0E94F33C66CF85E00E94BD3C0E94D3
:107C1000F33C60CF0E94763C809306010E94763C44
:107C2000809307010E94F33C55CF0E94763C80333D
:107C300009F41DC183E00E94BD3C80E00E94C73C66
:107C400049CF0E94763C809309020E94763C809343
:107C5000080280910C028E7F80930C020E94763C79
:107C6000853409F415C18091080290910902892B8D
:107C700089F000E010E00E94763CF801E85FFE4FDA
:107C800080830F5F1F4F80910802909109020817AF
:107C9000190788F30E94763C803209F045CF809125
:107CA0000C0280FF01C16091060170910701660F0F
:107CB000771F7093070160930601A0910802B091AD
:107CC00009021097C9F0E8E0F1E09B01AD014E0F09
:107CD0005F1FF999FECF32BD21BD819180BDFA9A17
:107CE000F99A2F5F3F4FE417F50799F76A0F7B1F4B
:107CF00070930701609306018091C00085FFFCCF5F
:107D0000F092C6008091C00085FFFCCFB092C60003
:107D1000E1CE83E00E94C73CDDCE82E00E94C73CFA
:107D2000D9CE0E94763C809309020E94763C8093D3
:107D300008028091060190910701880F991F909386
:107D40000701809306010E94763C853409F4A6C0A1
:107D500080910C028E7F80930C020E94763C8032D0
:107D600009F0B8CE8091C00085FFFCCFF092C6002C
:107D7000609108027091090261157105B9F140E046
:107D800050E080910C02A82FA170B82FB27011C0E2
:107D9000BB2309F45CC0E0910601F0910701319624
:107DA000F0930701E09306014F5F5F4F46175707B7
:107DB000E8F4AA2369F3F999FECF209106013091E6
:107DC000070132BD21BDF89A90B58091C00085FFB2
:107DD000FCCF9093C6002F5F3F4F30930701209355
:107DE00006014F5F5F4F4617570718F38091C00099
:107DF00085FDE5CE8091C00085FFF8CFE0CE81E023
:107E00000E94C73C67CE0E94763C803209F08CCE3F
:107E10008091C00085FFFCCFF092C6008091C00029
:107E200085FFFCCFE092C6008091C00085FFFCCFAB
:107E3000D092C6008091C00085FFFCCFC092C600E2
:107E40008091C00085FFFCCFB092C60043CEE09188
:107E50000601F091070194918091C00085FFFCCF4D
:107E60009093C6009CCF80E10E94C73C33CE0E9415
:107E7000763C0E94763C182F0E94763C112309F430
:107E800083C0113009F484C08FE00E94C73C22CE29
:107E900080910C02816080930C02E5CE80910C02EF
:107EA000816080930C0259CF809107018823880F4D
:107EB000880B8A2180930B02809106019091070123
:107EC000880F991F90930701809306018091080203
:107ED00080FF09C080910802909109020196909359
:107EE000090280930802F894F999FECF1127E091D6
:107EF0000601F0910701C8E0D1E08091080290915D
:107F00000902103091F40091570001700130D9F34B
:107F100003E000935700E89500915700017001308D
:107F2000D9F301E100935700E89509901990009169
:107F3000570001700130D9F301E000935700E89534
:107F40001395103498F011270091570001700130FB
:107F5000D9F305E000935700E895009157000170B0
:107F60000130D9F301E100935700E895329602976A
:107F700009F0C7CF103011F00296E5CF112480919F
:107F8000C00085FFB9CEBCCE8EE10E94C73CA2CD19
:0C7F900085E90E94C73C9ECDF894FFCF0D
:027F9C00800063
:040000030000780081
:00000001FF