:100000000C945E000C9486000C9486000C94860080
:100010000C9486000C9486000C9486000C94860048
:100020000C9486000C9486000C9486000C94F704C3
:100030000C9486000C9486000C9486000C94860028
:100040000C94AD040C9486000C947B040C94550421
:100050000C9486000C9486000C9486000C94860008
:100060000C9486000C9486000000000024002700F9
:100070002A0000000000250028002B0004040404CE
:100080000404040402020202020203030303030342
:10009000010204081020408001020408102001021F
:1000A00004081020000000080002010000030407FB
:1000B0000000000000000000D405BF0811241FBE8E
:1000C000CFEFD8E0DEBFCDBF11E0A0E0B1E0ECE6BD
:1000D000F7E102C005900D92AE33B107D9F722E0E7
:1000E000AEE3B1E001C01D92AD36B207E1F710E01A
:1000F000CDE5D0E004C02197FE010E94A709CC35D0
:10010000D107C9F70E942F060C94A90B0C9400008C
:10011000E2E7F1E0A089B18982E08C93A485B585FE
:100120001C92A685B7858FEC8C93108EA489B58917
:1001300086E08C93A289B3898C9180618C93A2898B
:10014000B3898C9188608C93A289B3898C918068E3
:100150008C930288F389E02D80818F7D80830895C0
:1001600020915B0230915C028217930738F4209152
:100170005702309158022115310529F4109271016E
:1001800081E791E00895820F931F0895CF92DF9247
:10019000EF92FF920F931F93CF93DF936C017A013D
:1001A0008B01C0E0D0E0CE15DF0581F0D8016D9164
:1001B0008D01D601ED91FC910190F081E02DC601F9
:1001C0000995892B11F02196EECF7E01C701DF91B1
:1001D000CF911F910F91FF90EF90DF90CF900895F6
:1001E000089580E090E00895FC01538D448D252F03
:1001F00030E0842F90E0821B930B541710F0CF96C1
:10020000089501970895FC01918D828D981761F0F2
:10021000828DDF01A80FB11D5D968C91928D9F5F3D
:100220009F73928F90E008958FEF9FEF0895FC01E8
:10023000918D828D981731F0828DE80FF11D858D9B
:1002400090E008958FEF9FEF0895FC01918D228D2E
:10025000892F90E0805C9F4F821B91098F739927B3
:10026000089582E791E00E94250121E0892B09F49D
:1002700020E0822F0895FC01848DDF01A80FB11DBD
:10028000A35ABF4F2C91848D90E001968F739927CC
:10029000848FA689B7892C93A089B1898C918370AA
:1002A00080648C93938D848D981306C00288F389A3
:1002B000E02D80818F7D80830895EF92FF920F93D0
:1002C0001F93CF93DF93EC0181E0888F9B8D8C8D02
:1002D000981305C0E889F989808185FD26C0F62E2E
:1002E0000B8D10E00F5F1F4F0F731127E02E8C8DC9
:1002F000E8120CC00FB607FCFACFE889F9898081B3
:1003000085FFF5CFCE010E943B01F1CF8B8DFE0121
:10031000E80FF11DE35AFF4FF0829FB7F8940B8F5F
:10032000EA89FB89808180620AC09FB7F894EE89D0
:10033000FF896083E889F989808183708064808384
:100340009FBF81E090E0DF91CF911F910F91FF90CF
:10035000EF900895CF93DF93EC01888D8823C9F047
:10036000EA89FB89808185FD05C0A889B9898C91BE
:1003700086FD0FC00FB607FCF5CF808185FFF2CF59
:10038000A889B9898C9185FFEDCFCE010E943B01F0
:10039000E7CFDF91CF91089580E090E0892B29F09D
:1003A0000E94310181110C940000089590E0FC013D
:1003B000EC55FF4F2491FC01E057FF4F3491FC01B5
:1003C000E458FF4FE491EE2309F43CC0222339F1B5
:1003D000233091F038F42130A9F0223001F584B5B2
:1003E0008F7D12C0273091F02830A1F02430B9F46D
:1003F000809180008F7D03C0809180008F778093F3
:1004000080000DC084B58F7784BD09C08091B00095
:100410008F7703C08091B0008F7D8093B000F0E0B3
:10042000EE0FFF1FEE58FF4FA591B4919FB7F894C0
:10043000611104C08C913095382302C0EC913E2BA1
:100440003C939FBF08952FB7F89460916901709114
:100450006A0180916B0190916C012FBF0895CF923A
:10046000DF92EF92FF92CF93DF93EC01603282E054
:1004700078070CF03DC077FD06C0653B71052CF098
:1004800064EB70E002C060E070E0898128E830E051
:100490006901C81AD10887FDD394CC0CDD1CCC0CA3
:1004A000DD1C0D2C000CEE08FF088A8128E532E0E7
:1004B000281B310987FD3395220F331F220F331F6D
:1004C000C901330FAA0BBB0B9C01AD012C193D09CF
:1004D0004E095F09DB010E944D0924EB30E040E04A
:1004E00050E00E942309C20ED31EE41EF51EB60181
:1004F00038813C3080F5298188E890E0821B9109A1
:1005000027FD9395880F991F880F991F6817790702
:1005100084F08A8148E552E0481B510987FD5395D4
:10052000440F551F440F551FCB01461757070CF4B6
:10053000CA010297880F991F4FB7F894232F30E014
:10054000F901EE0FFF1F2E0F3F1FF901E05CFE4F78
:10055000928381834FBFDF91CF91FF90EF90DF9027
:10056000CF900895CF93DF93DC018C918C3008F00D
:100570006DC0CB019927FC01E057FF4F2491FC018E
:10058000E458FF4F8491882399F090E0880F991FD9
:10059000FC01E859FF4FC591D491FC01EE58FF4F83
:1005A000859194918FB7F894E881E22BE8838FBF0F
:1005B0008C91E82FF0E09F01220F331FE20FF31F11
:1005C000E05CFE4F6F739081907C692B6083119685
:1005D0001C92119712961C9212976CE00E949B0934
:1005E0009CE0899FB001112440E050E09B01240F62
:1005F000351FF901EE0FFF1F2E0F3F1FF901E05CC1
:10060000FE4F908196FD16C04F5F5F4F4C305105F5
:1006100069F781110FC01092800082E08093810001
:100620001092850010928400B19A80916F008260D0
:1006300080936F00EC91F0E0CF01880F991FE80FD5
:10064000F91FE05CFE4F8081806480838C91DF9194
:10065000CF9108956115710579F0FB01019000209B
:10066000E9F73197AF01461B570BDC01ED91FC9187
:100670000280F381E02D099480E090E008958F924C
:100680009F92AF92BF92EF92FF920F931F93CF93DF
:10069000DF93CDB7DEB7A1970FB6F894DEBF0FBEDC
:1006A000CDBF7C01FA01CB0119A2223008F42AE067
:1006B0008E010F5D1F4F822E912CA12CB12CBF01FA
:1006C000A50194010E940109F901CA010150110913
:1006D0006A3014F4605D01C0695CD8016C93232B0F
:1006E000242B252B61F7B801C7010E942A03A1968C
:1006F0000FB6F894DEBF0FBECDBFDF91CF911F9133
:100700000F91FF90EF90BF90AF909F908F900895C2
:100710000E94940B0F931F93CF93DF93EC0188817A
:100720009981009729F02A813B812617370788F4A1
:100730008B016F5F7F4F0E94CE0A009761F0998313
:1007400088831B830A832C813D81232B11F4FC01B8
:10075000108281E001C080E0DF91CF911F910F9165
:1007600008950F931F93CF93DF93EC018B010E94A9
:100770008A032881398181110DC02115310519F0B5
:10078000C9010E94450A198218821D821C821B829F
:100790001A8207C01D830C8369E271E0C9010E94BF
:1007A000A20BCE01DF91CF911F910F910895EF928F
:1007B000FF920F931F93CF93DF9300D0CDB7DEB797
:1007C0008C0169831A82FC01E480F580FFEFEF1A47
:1007D000FF0AB7010E948A03882381F0F801208173
:1007E000318184819581BE016F5F7F4F820F931F9E
:1007F0000E94A20BF801F582E48281E00F900F9035
:10080000DF91CF911F910F91FF90EF900895CF92BC
:10081000DF92EF92FF920F931F93CF93DF9300D05D
:1008200000D000D0CDB7DEB71A8219821C821B829D
:100830001E821D8260E070E0CE0101960E94B1032D
:1008400081E090E00E94B000FC016081CE01019641
:100850000E94D70382E090E00E94B000FC0160811A
:10086000CE0101960E94D70309811A810115110555
:1008700031F0C8010E94C5086B017C0103C0C12C86
:10088000D12C7601C8010E94450AC60126960FB6F2
:10089000F894DEBF0FBECDBFDF91CF911F910F91B6
:1008A000FF90EF90DF90CF9008951F920F920FB6B8
:1008B0000F9211242F933F934F935F936F937F93E6
:1008C0008F939F93AF93BF93EF93FF9382E791E052
:1008D0000E943B01FF91EF91BF91AF919F918F914A
:1008E0007F916F915F914F913F912F910F900FBE2C
:1008F0000F901F9018951F920F920FB60F92112410
:100900002F938F939F93EF93FF93E0918201F09148
:1009100083018081E0918801F091890182FD12C0FC
:10092000908180918B018F5F8F7320918C01821752
:1009300051F0E0918B01F0E0EE58FE4F958F8093DF
:100940008B0101C08081FF91EF919F918F912F9139
:100950000F900FBE0F901F9018951F920F920FB619
:100960000F9211242F933F938F939F93AF93BF9335
:100970008091690190916A01A0916B01B0916C0125
:100980003091680123E0230F2D3720F40196A11D3B
:10099000B11D05C026E8230F0296A11DB11D2093AD
:1009A00068018093690190936A01A0936B01B093F1
:1009B0006C018091640190916501A0916601B091F4
:1009C00067010196A11DB11D80936401909365019B
:1009D000A0936601B0936701BF91AF919F918F91F2
:1009E0003F912F910F900FBE0F901F9018951F925F
:1009F0000F920FB60F9211242F933F934F935F9353
:100A00006F937F938F939F93AF93BF93EF93FF93D6
:100A100080913E0187FF05C01092850010928400EE
:100A20001BC020913E01022E000C330B80913F0130
:100A300090E02817390784F480913E01082E000CBD
:100A4000990BFC01EE0FFF1F8E0F9F1FFC01E05C56
:100A5000FE4F808186FD15C080913E018F5F80939F
:100A60003E0120913E01022E000C330B80913F018C
:100A700090E028173907C4F480913E018C3064F16E
:100A800013C080913E01082E000C990BFC01EE0F63
:100A9000FF1F8E0F9F1FFC01E05CFE4F808160E016
:100AA0008F730E94D601D8CF8091840090918500E9
:100AB000049680349C4918F480E49CE905C0809138
:100AC000840090918500049690938900809388001B
:100AD0008FEF80933E013BC02091840030918500D0
:100AE00080913E01082E000C990BFC01EE0FFF1FB8
:100AF0008E0F9F1FFC01E05CFE4F81819281820F6F
:100B0000931F909389008093880080913E01082E66
:100B1000000C990BFC01EE0FFF1F8E0F9F1FFC01B5
:100B2000E05CFE4F808186FF12C080913E01082E5E
:100B3000000C990BFC01EE0FFF1F8E0F9F1FFC0195
:100B4000E05CFE4F808161E08F730E94D601FF91CF
:100B5000EF91BF91AF919F918F917F916F915F9135
:100B60004F913F912F910F900FBE0F901F901895AE
:100B7000FC0190913F019C30A0F481E0890F8093AB
:100B80003F019083892F90E0FC01EE0FFF1F8E0F35
:100B90009F1FFC01E05CFE4F88EB9BE0928381830A
:100BA00008958FEF80830895E2E7F1E013821282C7
:100BB00088EE93E0A0E0B0E084839583A683B783BA
:100BC0008AE091E09183808385EC90E0958784872B
:100BD00084EC90E09787868780EC90E0918B808B07
:100BE00081EC90E0938B828B82EC90E0958B848BF0
:100BF00086EC90E0978B868B118E128E138E148E5E
:100C0000EFE0F2E0168217821086118612861386B4
:100C10001486158616861786108A118A128A138AF8
:100C2000148A158A86E692E00E94B80583E692E06F
:100C30000E94B80580E692E00E94B8058DE592E03A
:100C40000E94B805E7E5F2E0118210821382128259
:100C50001582148260E070E0CF010C94B1037894A7
:100C600084B5826084BD84B5816084BD85B58260B1
:100C700085BD85B5816085BD80916E008160809362
:100C80006E001092810080918100826080938100CB
:100C900080918100816080938100809180008160DB
:100CA000809380008091B10084608093B100809136
:100CB000B00081608093B00080917A00846080935E
:100CC0007A0080917A00826080937A0080917A0025
:100CD000816080937A0080917A00806880937A00A6
:100CE0001092C100109253021092540210925502B9
:100CF00010925602109211021092120210921302D8
:100D0000109214020E9423026B017C014B015C01D2
:100D100028EB820E2BE0921EA11CB11C0E94230224
:100D20006C157D058E059F0528F086169706A8068A
:100D3000B906A0F782E791E09093520280935102A6
:100D40000E9488000E942302609311027093120295
:100D5000809313029093140268E171E08091510234
:100D6000909152020E942A030E9423026B017C018F
:100D70004B015C013AE0830E911CA11CB11C0E9446
:100D800023026C157D058E059F0528F086169706B3
:100D9000A806B906A0F781E0809325020E9488008A
:100DA00060E08DE00E94D60169E070E086E692E0A6
:100DB0000E94B20260E070E086E692E00E942F029C
:100DC00068E070E083E692E00E94B20260E070E0CA
:100DD00083E692E00E942F0267E070E080E692E0F6
:100DE0000E94B20260E070E080E692E00E942F0272
:100DF00066E070E08DE592E00E94B20260E070E093
:100E00008DE592E00E942F0284EF882E992493941E
:100E1000A12CB12C0E942302672B682B692B41F473
:100E20000E942302623071058105910508F410C10A
:100E30000E942302C0906D01D0906E01E0906F017E
:100E4000F09070016C157D058E059F0540F4609350
:100E50006D0170936E0180936F0190937001C0904B
:100E60006D01D0906E01E0906F01F09070019B01D8
:100E7000AC012C193D094E095F0969017A013AEF6D
:100E8000C316D104E104F10408F4E2C060936D01DB
:100E900070936E0180936F019093700180921D0298
:100EA00090921E02A0921F02B09220021092210284
:100EB00010922202109223021092240280911502B5
:100EC00090911602A0911702B09118028093190216
:100ED00090931A02A0931B02B0931C020E9423025B
:100EE0006093150270931602809317029093180274
:100EF0000E942302609311027093120280931302E6
:100F0000909314020E9423026B017C016AE271E05B
:100F100080915102909152020E942A032AE041E0FE
:100F200050E060E070E080915102909152020E9486
:100F30003F0361E371E080915102909152020E945F
:100F40002A032AE0B701A601809151029091520232
:100F50000E943F0363E371E080915102909152023D
:100F60000E942A038091150290911602A091170207
:100F7000B0911802B701A601481B590B6A0B7B0BF5
:100F80002AE080915102909152020E943F0363E354
:100F900071E080915102909152020E942A03409187
:100FA00015025091160260911702709118028091FB
:100FB000190290911A02A0911B02B0911C02481BC9
:100FC000590B6A0B7B0B2AE08091510290915202DF
:100FD0000E943F0365E371E08091510290915202BB
:100FE0000E942A030E942302AB01BC012AE08091E7
:100FF0005102909152020E943F03E0905102F09002
:10100000520267E371E0C7010E942A0367E271E0C0
:10101000C7010E942A030E9423026B017C012B015D
:101020003C0142E0440E511C611C711C0E942302D1
:101030006C157D058E059F0508F093C00E94230264
:101040006093150270931602809317029093180212
:1010500082E791E00E942501181619064CF482E7F8
:1010600091E00E940301682F87E592E00E94D70378
:1010700080E090E00E94B000FC018081813609F19F
:1010800080E090E00E94B000FC0180818236C9F0CF
:1010900080E090E00E94B000FC018081833689F0FE
:1010A00080E090E00E94B000FC018081843649F02D
:1010B00080E090E00E94B000FC0180818A3209F05B
:1010C00057C080915B0290915C02039708F446C080
:1010D00080E090E00E94B000FC018081823681F0C7
:1010E00054F48A32C9F0813699F50E940704BC0194
:1010F00086E692E02BC0833649F0843611F128C091
:101100000E940704BC0183E692E020C00E9407040D
:10111000BC0180E692E01AC00E940704BC0186E68A
:1011200092E00E942F020E940704BC0183E692E035
:101130000E942F020E940704BC0180E692E00E94F8
:101140002F020E940704BC018DE592E00E942F024D
:1011500060E070E087E592E00E94B1030E94CC015C
:1011600059CE461657066806790608F05FCF66CF57
:1011700060E070E087E592E00E94B103A2CF809129
:101180005702909158020C94450A1F93FC0199272D
:101190008827BC01E89411911032E9F3193010F05E
:1011A0001E30C8F31B3251F01D3249F4689406C05A
:1011B0000E94EC08610F711D811D911D119110534A
:1011C0001A30B0F33EF490958095709561957F4FFD
:1011D0008F4F9F4F1F910895592F482F372F262F3C
:1011E000660F771F881F991F660F771F881F991F2B
:1011F000620F731F841F951F660F771F881F991F2B
:101200000895A1E21A2EAA1BBB1BFD010DC0AA1F47
:10121000BB1FEE1FFF1FA217B307E407F50720F05F
:10122000A21BB30BE40BF50B661F771F881F991FDA
:101230001A9469F760957095809590959B01AC0123
:10124000BD01CF010895052E97FB1EF400940E9466
:101250003A0957FD07D00E94010907FC03D04EF45C
:101260000C943A0950954095309521953F4F4F4F3A
:101270005F4F089590958095709561957F4F8F4F42
:101280009F4F08950E948C09A59F900DB49F900DCB
:10129000A49F800D911D11240895B7FF0C9442095D
:1012A0000E944209821B930B08952F923F924F9206
:1012B0005F926F927F928F929F92AF92BF92CF92E6
:1012C000DF92EF92FF920F931F93CF93DF93CDB7EF
:1012D000DEB7CA1BDB0B0FB6F894DEBF0FBECDBF67
:1012E00009942A88398848885F846E847D848C8438
:1012F0009B84AA84B984C884DF80EE80FD800C8141
:101300001B81AA81B981CE0FD11D0FB6F894DEBF23
:101310000FBECDBFED010895A29FB001B39FC001E4
:10132000A39F700D811D1124911DB29F700D811D11
:101330001124911D0895991B79E004C0991F9617F7
:1013400008F0961B881F7A95C9F780950895EE0FCF
:10135000FF1F0590F491E02D09940F931F93CF93F5
:10136000DF938230910510F482E090E0E0916B020F
:10137000F0916C0220E030E0A0E0B0E0309719F18D
:10138000408151810281138148175907C8F08417A1
:10139000950769F4109731F012960C9312971396F3
:1013A0001C9327C000936B0210936C0222C021157E
:1013B000310519F04217530718F49A01BD01EF01E6
:1013C000DF01F801DBCF21153105F9F0281B390BBE
:1013D0002430310580F48A819B816115710521F0EB
:1013E000FB019383828304C090936C0280936B0211
:1013F000FE01329644C0FE01E20FF31F81939193E8
:1014000022503109398328833AC0209169023091F2
:101410006A02232B41F420910201309103013093A1
:101420006A02209369022091000130910101211587
:10143000310541F42DB73EB74091040150910501AB
:10144000241B350BE0916902F0916A02E217F30761
:10145000A0F42E1B3F0B2817390778F0AC014E5F24
:101460005F4F2417350748F04E0F5F1F50936A02F5
:10147000409369028193919302C0E0E0F0E0CF01D4
:10148000DF91CF911F910F910895CF93DF93009734
:1014900009F481C0FC01329713821282A0916B0281
:1014A000B0916C02109781F420813181820F931FDB
:1014B0002091690230916A022817390751F5F0939B
:1014C0006A02E093690267C0ED0120E030E0CE17C8
:1014D000DF0740F44A815B819E0141155105F1F01F
:1014E000EA01F5CFD383C28340815181840F951FD8
:1014F000C817D90759F488819981840F951F0296DE
:10150000918380838A819B81938382832115310516
:1015100029F4F0936C02E0936B023DC0E901FB8378
:10152000EA8349915991C40FD51FEC17FD0761F467
:1015300080819181840F951F0296E90199838883A8
:10154000828193819B838A83E0E0F0E012968D9103
:101550009C911397009719F0FD01DC01F7CF8D9155
:101560009C9111979D012E5F3F4F820F931F2091F9
:10157000690230916A022817390769F4309729F413
:1015800010926C0210926B0202C013821282B0930E
:101590006A02A0936902DF91CF910895A0E0B0E0C4
:1015A000E4EDFAE00C945909EC01009721F4CB0129
:1015B0000E94AD09B4C0FC01E60FF71F9C01225048
:1015C0003109E217F30708F4A8C0D9010D911C9165
:1015D000119706171707B0F00530110508F49BC0E6
:1015E000C80104978617970708F495C0025011099F
:1015F000061B170B019311936D937C93CF010E94EF
:10160000450A89C05B01A01AB10A4C01800E911EE7
:10161000A0916B02B0916C02612C712CE12CF12C29
:10162000109709F446C08D919C911197A815B905A2
:10163000B1F56C0142E0C40ED11CCA14DB0478F190
:101640004C018A189B08640142E0C40ED11C12961A
:10165000BC9012971396AC91B5E0CB16D10440F034
:10166000B282A38391828082D9016D937C9309C059
:101670000E5F1F4F800F911FF90191838083EB2D27
:10168000FA2FE114F10431F0D7011396FC93EE9395
:10169000129741C0F0936C02E0936B023CC0681655
:1016A000790608F43C017D0112960D90BC91A02DA5
:1016B000B7CF8091690290916A0288169906E1F489
:1016C00066167706C8F48091000190910101009799
:1016D00041F48DB79EB74091040150910501841BE0
:1016E000950BE817F907C8F4F0936A02E0936902D2
:1016F000F901718360830FC0CB010E94AD097C01A9
:10170000009759F0A801BE010E94990BCE010E94DA
:10171000450AC70104C0CE0102C080E090E0CDB709
:10172000DEB7EEE00C94750981E090E0F8940C943B
:10173000A90BFB01DC0102C001900D924150504009
:10174000D8F70895FB01DC0101900D920020E1F72C
:10175000089510E0CDE5D0E004C0FE010E94A70985
:0C1760002196CE35D107C9F7F894FFCFD1
:10176C0000006D028000000000005D01C600F40066
:10177C00AA01250103011701564D4450565F317CD7
:10178C00315F564D4450560D0A00564D4450455F3E
:0E179C00003A323A007C005F564D4450450042
:107800000C94343C0C94513C0C94513C0C94513CE1
:107810000C94513C0C94513C0C94513C0C94513CB4
:107820000C94513C0C94513C0C94513C0C94513CA4
:107830000C94513C0C94513C0C94513C0C94513C94
:107840000C94513C0C94513C0C94513C0C94513C84
:107850000C94513C0C94513C0C94513C0C94513C74
:107860000C94513C0C94513C11241FBECFEFD8E036
:10787000DEBFCDBF11E0A0E0B1E0ECE9FFE702C060
:1078800005900D92A230B107D9F712E0A2E0B1E065
:1078900001C01D92AD30B107E1F70E942D3D0C945F
:1078A000CC3F0C94003C982F959595959595959582
:1078B000905D8F708A307CF0282F295A8091C0000B
:1078C00085FFFCCF9093C6008091C00085FFFCCF60
:1078D0002093C6000895282F205DF0CF982F809127
:1078E000C00085FFFCCF9093C6000895EF92FF92F1
:1078F0000F931F93EE24FF2487018091C00087FD22
:1079000017C00894E11CF11C011D111D81E4E8164B
:1079100082E4F8068FE0080780E0180770F3E09132
:107920000401F091050109958091C00087FFE9CF1E
:107930008091C6001F910F91FF90EF9008950E94D3
:10794000763C982F8091C00085FFFCCF9093C600B5
:1079500091362CF490330CF09053892F089597555D
:10796000892F08951F930E949F3C182F0E949F3CCF
:107970001295107F810F1F9108951F93182F882350
:1079800021F00E94763C1150E1F71F9108951F935A
:10799000182F0E94763C803249F0809103018F5F5E
:1079A000809303018530C1F01F9108958091C0003C
:1079B00085FFFCCF84E18093C6008091C00085FFE5
:1079C000FCCF1093C6008091C00085FFFCCF80E102
:1079D0008093C6001F910895E0910401F091050184
:1079E00009951F9108950E94763C803241F0809164
:1079F00003018F5F80930301853081F008958091AA
:107A0000C00085FFFCCF84E18093C6008091C00058
:107A100085FFFCCF80E18093C6000895E0910401CA
:107A2000F09105010995089540E951E08823A1F0FE
:107A30002D9A28EE33E0FA013197F1F721503040CA
:107A4000D1F72D9828EE33E0FA013197F1F7215064
:107A50003040D1F7815061F708953F924F925F9285
:107A60006F927F928F929F92AF92BF92CF92DF924E
:107A7000EF92FF920F931F93CF93DF93000080E16B
:107A80008093C4001092C50088E18093C10086E015
:107A90008093C2005098589A259A81E00E94143D24
:107AA00024E1F22E9EE1E92E85E9D82E0FE0C02ECA
:107AB00010E1B12EAA24A394B1E49B2EA6E58A2E50
:107AC000F2E57F2EE0E26E2E79E4572E63E5462E36
:107AD00050E5352E0E94763C8033B1F18133B9F107
:107AE000803409F46FC0813409F476C0823409F41B
:107AF00085C0853409F488C0803531F1823521F1A3
:107B0000813511F1853509F485C0863509F48DC0BC
:107B1000843609F496C0843709F403C1853709F423
:107B200072C1863709F466C0809103018F5F80932C
:107B30000301853079F6E0910401F0910501099582
:107B40000E94763C803351F60E94F33CC3CF0E94E2
:107B5000763C803249F78091C00085FFFCCFF092DF
:107B6000C6008091C00085FFFCCF9092C600809136
:107B7000C00085FFFCCF8092C6008091C00085FFC9
:107B8000FCCF7092C6008091C00085FFFCCF609250
:107B9000C6008091C00085FFFCCF5092C600809146
:107BA000C00085FFFCCF4092C6008091C00085FFD9
:107BB000FCCF3092C6008091C00085FFFCCFB09210
:107BC000C60088CF0E94763C863808F4BDCF0E945C
:107BD000763C0E94F33C7ECF0E94763C803809F4CC
:107BE0009CC0813809F40BC1823809F43CC1883942
:107BF00009F48FC080E00E94C73C6CCF84E10E94F2
:107C0000BD3C0E94F33C66CF85E00E94BD3C0E94D3
:107C1000F33C60CF0E94763C809306010E94763C44
:107C2000809307010E94F33C55CF0E94763C80333D
:107C300009F41DC183E00E94BD3C80E00E94C73C66
:107C400049CF0E94763C809309020E94763C809343
:107C5000080280910C028E7F80930C020E94763C79
:107C6000853409F415C18091080290910902892B8D
:107C700089F000E010E00E94763CF801E85FFE4FDA
:107C800080830F5F1F4F80910802909109020817AF
:107C9000190788F30E94763C803209F045CF809125
:107CA0000C0280FF01C16091060170910701660F0F
:107CB000771F7093070160930601A0910802B091AD
:107CC00009021097C9F0E8E0F1E09B01AD014E0F09
:107CD0005F1FF999FECF32BD21BD819180BDFA9A17
:107CE000F99A2F5F3F4FE417F50799F76A0F7B1F4B
:107CF00070930701609306018091C00085FFFCCF5F
:107D0000F092C6008091C00085FFFCCFB092C60003
:107D1000E1CE83E00E94C73CDDCE82E00E94C73CFA
:107D2000D9CE0E94763C809309020E94763C8093D3
:107D300008028091060190910701880F991F909386
:107D40000701809306010E94763C853409F4A6C0A1
:107D500080910C028E7F80930C020E94763C8032D0
:107D600009F0B8CE8091C00085FFFCCFF092C6002C
:107D7000609108027091090261157105B9F140E046
:107D800050E080910C02A82FA170B82FB27011C0E2
:107D9000BB2309F45CC0E0910601F0910701319624
:107DA000F0930701E09306014F5F5F4F46175707B7
:107DB000E8F4AA2369F3F999FECF209106013091E6
:107DC000070132BD21BDF89A90B58091C00085FFB2
:107DD000FCCF9093C6002F5F3F4F30930701209355
:107DE00006014F5F5F4F4617570718F38091C00099
:107DF00085FDE5CE8091C00085FFF8CFE0CE81E023
:107E00000E94C73C67CE0E94763C803209F08CCE3F
:107E10008091C00085FFFCCFF092C6008091C00029
:107E200085FFFCCFE092C6008091C00085FFFCCFAB
:107E3000D092C6008091C00085FFFCCFC092C600E2
:107E40008091C00085FFFCCFB092C60043CEE09188
:107E50000601F091070194918091C00085FFFCCF4D
:107E60009093C6009CCF80E10E94C73C33CE0E9415
:107E7000763C0E94763C182F0E94763C112309F430
:107E800083C0113009F484C08FE00E94C73C22CE29
:107E900080910C02816080930C02E5CE80910C02EF
:107EA000816080930C0259CF809107018823880F4D
:107EB000880B8A2180930B02809106019091070123
:107EC000880F991F90930701809306018091080203
:107ED00080FF09C080910802909109020196909359
:107EE000090280930802F894F999FECF1127E091D6
:107EF0000601F0910701C8E0D1E08091080290915D
:107F00000902103091F40091570001700130D9F34B
:107F100003E000935700E89500915700017001308D
:107F2000D9F301E100935700E89509901990009169
:107F3000570001700130D9F301E000935700E89534
:107F40001395103498F011270091570001700130FB
:107F5000D9F305E000935700E895009157000170B0
:107F60000130D9F301E100935700E895329602976A
:107F700009F0C7CF103011F00296E5CF112480919F
:107F8000C00085FFB9CEBCCE8EE10E94C73CA2CD19
:0C7F900085E90E94C73C9ECDF894FFCF0D
:027F9C00800063
:040000030000780081
:00000001FF